:020000040800F2
:10000000D00B00200D0D0008550300085703000811
:100010005B0300085F0300086303000800000000A2
:10002000000000000000000000000000670300085E
:1000300069030008000000006B03000811040008B9
:10004000270D0008270D0008270D0008270D0008C0
:10005000270D0008270D0008270D0008270D0008B0
:10006000270D0008270D0008270D0008270D0008A0
:10007000270D0008270D0008270D0008270D000890
:10008000270D0008270D0008270D0008270D000880
:10009000270D0008270D0008270D0008270D000870
:1000A000270D0008270D0008270D0008270D000860
:1000B000270D0008270D0008270D0008270D000850
:1000C000270D0008270D0008270D0008270D000840
:1000D000270D0008E5040008270D0008270D00087B
:1000E000270D0008270D0008270D0008270D000820
:1000F000270D0008270D0008270D0008270D000810
:10010000270D0008270D0008270D0008270D0008FF
:10011000270D0008270D0008270D0008270D0008EF
:10012000270D0008270D0008270D0008270D0008DF
:1001300000F002F800F041F80AA090E8000C8244B8
:100140008344AAF10107DA4501D100F036F8AFF295
:10015000090EBAE80F0013F0010F18BFFB1A43F0A5
:1001600001031847341F0000541F0000103A24BF39
:1001700078C878C1FAD8520724BF30C830C144BF0C
:1001800004680C607047000000230024002500264E
:10019000103A28BF78C1FBD8520728BF30C148BFEA
:1001A0000B607047642901F05F86002070471FB51F
:1001B00001F0ABFE1FBD10B510BD01F03BFF1146B5
:1001C000FFF7F5FF00F022F801F059FF03B4FFF745
:1001D000F2FF03BC00F02AF90B49D1F800C04A68CD
:1001E0005CF8043B1068184442F8040B8C4528BFA7
:1001F000A1F1DC0C8A4228BFA1F1DC02C1F800C0E9
:100200004A6020F000407047680500201CB54FF49C
:10021000407001F0CFFB00F0A9F84FF4E13000F09E
:1002200014F931A001F0E0FD00F0FAFA06E031A087
:1002300001F0DAFD4FF47A7000F0E1F800F0BBFA5B
:100240000028F4D130A001F0CFFD00F038FB4AE0E7
:100250006A46324901A800F0D2FB064606F040008B
:10026000002840D02EA001F0BFFD002406E02B485E
:10027000015D30A001F0B8FD601CC4B29DF8000023
:100280008442F4DB2CA001F0AFFD0A25002405E038
:100290002248005D29490855601CC4B2AC42F7DB16
:1002A000FFF79AFF0A2190FBF1F201FB1200C1B2A5
:1002B000681E224A115422A001F096FD002406E097
:1002C0001E48015D1BA001F08FFD601CC4B2AC4252
:1002D000F6DB19A001F088FD17A001F085FD294685
:1002E000164800F07CFBB3E74F4B2E2E2E0D0A0D67
:1002F0000A0D0A004E524632344C3031204572729B
:100300006F720D0A000000005258204E52463234DF
:100310004C3031204F4B0D0A000000002C0400200F
:1003200052585F4F4B2020202020202052585F42FF
:1003300055463A0025642C000D0A00004C040020AC
:1003400054585F41434B5F425546202054585F420A
:1003500055463A00704700BFFEE700BFFEE700BF0A
:10036000FEE700BFFEE770477047704710B56FF0BB
:10037000040001F06EFB294800682949B0FBF1F048
:10038000284908704FF0E020006940F002004FF06B
:10039000E02108612348007800EB4001C1EBC01068
:1003A0000121C1EBC0004FF0E0214861084600691F
:1003B00040F00100086110BD70B5034600224FF007
:1003C000E0267569174E367803FB06F400BF4FF040
:1003D000E026B16910E04FF0E026B06988420BD00A
:1003E000884202D20E1A324402E02E1A0E443244DF
:1003F0000146A24200D300E0EDE700BF70BD10B59A
:1004000004464FF47A7104FB01F0FFF7D5FF10BDED
:1004100005480068401C0449086070471C00002023
:1004200000127A000400002000000020014600BFF6
:10043000704700BF4A4A128802F04002002AF9D0F1
:10044000C2B2474B1B1D1A80704710B586B00446D8
:10045000012144F2040001F048FA4FF40070ADF8B5
:10046000140003208DF8160018208DF8170005A938
:100470003C4800F0CBFC4FF48060ADF81400042041
:100480008DF8170005A9374800F0C0FC25208DF82D
:10049000000005208DF8010000208DF802000120E9
:1004A0008DF80300684601F08AFA01940020ADF847
:1004B0000800ADF80A00ADF80C00ADF810000C20F3
:1004C000ADF80E0001A9264800F031FE012240F2ED
:1004D0002551234800F0C3FE0121214800F0B3FE5E
:1004E00006B010BD10B540F225511D4800F09CFF2C
:1004F00010B31B4800F018FFC4B21B48008800F47A
:100500000040C8B91848008800F4804060B10A2C47
:1005100003D000201449088021E01348008840F4EB
:100520000040114908801AE00D2C06D10E480088C1
:1005300040F480400C49088011E00B480088C0F36B
:100540000D000A490C5408480088401C06490880E0
:1005500008460088B0F5487F01DB0020088010BD08
:1005600000380140000801400C0000200C01002070
:1005700010B504463E4800884FF6C77108403C4914
:10058000088008460088204308800121384801F08F
:100590006BFB10BD70B50546002405E0601CC4B2BD
:1005A000C82C01DD002070BD0221314801F0E0FBC4
:1005B0000028F3D029462E4801F087FB002405E0EF
:1005C000601CC4B2C82C01DD0020ECE701212848E2
:1005D00001F0CEFB0028F3D0254801F078FBC0B233
:1005E000E1E700B587B00121042001F07EF9012187
:1005F000080301F07AF9E020ADF8180018208DF812
:100600001B0003208DF81A0006A91A4800F0FEFB13
:10061000E021184800F0A7FC0020ADF804004FF4DA
:100620008270ADF806000020ADF808000220ADF899
:100630000A000120ADF80C004002ADF80E00382091
:10064000ADF810000020ADF812000720ADF814003E
:1006500001A9074801F042FA0121054801F004FB15
:10066000FF20FFF797FF0820FFF782FF07B000BDCC
:10067000003001400008014000B587B0012108208A
:1006800001F033F90520ADF8180010208DF81B009B
:1006900003208DF81A0006A9EE4800F0B7FB0521EB
:1006A000EC4800F062FC0121042001F01EF94FF437
:1006B0000040ADF8180028208DF81B0003208DF8AD
:1006C0001A0006A9E44800F0A1FB4FF40041E248FB
:1006D00000F04BFCFFF785FF0021E04801F0C4FA71
:1006E0000020ADF804004FF48270ADF80600002041
:1006F000ADF80800ADF80A00ADF80C004FF400703A
:10070000ADF80E001820ADF810000020ADF8120072
:100710000720ADF8140001A9D04801F0DFF901214C
:10072000CE4801F0A1FA1020FFF722FF0020CC49AB
:1007300008600120CB49C1F8880107B000BD2DE950
:10074000F04107460D4616460020C54908310860AD
:100750003846FFF71FFF8046002405E0FF20FFF723
:1007600019FF2855601CC4B2B442F7DB0120BC4914
:10077000083108604046BDE8F0812DE9F0410746A8
:100780000C4615460020B649083108603846FFF788
:1007900001FF8046002605E014F8010BFFF7FAFE82
:1007A000701CC6B2AE42F7DB0120AD4908310860CB
:1007B0004046BDE8F0811CB5ABA103C9CDE90001FD
:1007C000052269463020FFF7D8FF05226946102030
:1007D000FFF7B5FF002406E01DF80400A52800D0AF
:1007E00003E0601CC4B2052CF6DB00BF052C01D071
:1007F00001201CBD0020FCE770B505460C4600201A
:100800009749083108602846FFF7C4FE064620468F
:10081000FFF7C0FE01209349C1F88801304670BD42
:1008200010B5FFF729FF00208D4908600121212024
:10083000FFF7E2FF01212220FFF7DEFF1A2124202B
:10084000FFF7DAFF05212520FFF7D6FF0F2126202D
:10085000FFF7D2FF01208349C1F880010A20FFF78A
:10086000CEFD10BD10B500207D49086005228049ED
:100870003020FFF782FF05227D492A20FFF77DFF08
:100880000E212020FFF7B8FFFF21E120FFF7B4FF82
:10089000FF21E220FFF7B0FF5020FFF77BFE73201F
:1008A000FFF778FE01213C20FFF7A6FF07213D203E
:1008B000FFF7A2FF01206B49C1F8800110BD10B500
:1008C00000206749086005226A492A20FFF755FF82
:1008D0000F212020FFF790FFFF21E120FFF78CFF81
:1008E000FF21E220FFF788FF5020FFF753FE73201F
:1008F000FFF750FE01213C20FFF77EFF07213D203E
:10090000FFF77AFF01205749C1F8800110BD70B58B
:10091000044600205249083108602046FFF73AFE9D
:10092000FF20FFF737FE054601204E49C1F8880138
:10093000284670BD2DE9F0470746884691461C467B
:100940000026002046490860052249493020FFF76B
:1009500014FF052246492A20FFF70FFF4246394679
:10096000A020FFF70AFF01203E49C1F880010A20BC
:10097000FFF722FD00BF404800680028FBD1072098
:10098000FFF7C5FF054629462720FFF735FF05F08D
:10099000200008B146F0200605F0100020B137A075
:1009A00001F022FA46F0100605F04000A0B16020E8
:1009B000FFF7ADFF20702078212805DA227849461C
:1009C0006120FFF7BCFE05E000202070FF21E2203F
:1009D000FFF712FF46F040063046BDE8F08770B5DD
:1009E00004460D4600201E4908602A462146A820DC
:1009F000FFF7C3FE01201B49C1F8800170BD2DE93E
:100A0000F04106460F4614460720FFF780FF0546D3
:100A100029462720FFF7F0FE05F04000C0B1C5F3DE
:100A2000420030706020FFF772FF2070207821288C
:100A300005DA227839466120FFF781FE05E00020C3
:100A40002070FF21E220FFF7D7FE4020BDE8F081B3
:100A50000020FBE7000C014000080140003001408D
:100A60008081214200802142A5A5A5A5A500000006
:100A70000E000020130000203C0121424D41585F30
:100A800054580D0A000000000CB5002001900090A1
:100A90009248006840F480309049086000BF8F4859
:100AA000006800F4003000900198401C019000980C
:100AB00018B90198B0F5A06FF1D18848006800F42A
:100AC000003010B10120009001E00020009000985B
:100AD00001285CD18248006840F01000804908601D
:100AE0000846006820F0030008600846006840F0EF
:100AF00002000860794840687849486008464068C4
:100B000048600846406840F4806048600846C06A13
:100B1000744908407149C8620846C06A724908436E
:100B20006E49C8620846006840F08060086000BFF7
:100B30006A48006800F000600028F9D06748406803
:100B400020F47C10654948600846406840F4E8108D
:100B500048600846006840F08070086000BF5F4849
:100B6000006800F000700028F9D05C48406820F070
:100B700003005A4948600846406840F00200486057
:100B800000BF5648406800F00C000828F9D10CBDA1
:100B900010B5FFF779FF10BD10B55048006840F060
:100BA00001004E49086008464068504908404B49DA
:100BB0004860084600684E490840484908600846B1
:100BC000006820F4802008600846406820F4FE0099
:100BD00048600846006820F0A05008604FF47F008D
:100BE00088600020C862FFF7D3FF4FF000604149E2
:100BF000086010BDF0B50021002000230024002271
:100C000000250026354F7F6807F00C0121B104292B
:100C100008D008294BD10BE0374FDFF8E0C0CCF803
:100C200000704AE0364FDFF8D4C0CCF8007044E0E2
:100C30002A4F7F6807F47010284F7F6807F48033CD
:100C4000800C0D2801D0801C00E0062033B92D4F08
:100C50004743DFF8A8C0CCF8007027E01F4FFF6AB9
:100C600007F480341D4FFF6A07F00F077A1C44B960
:100C7000234FB7FBF2F74743DFF880C0CCF8007092
:100C800014E0164FFF6AC7F303177D1C134FFF6A6A
:100C9000C7F30327BE1C1A4FB7FBF5F77743B7FB23
:100CA000F2F74743DFF854C0CCF8007005E0124F6C
:100CB000DFF848C0CCF8007000BF00BF074F7F6866
:100CC000C7F30317DFF840C01CF807100B4F3F684D
:100CD000CF40DFF828C0CCF80070F0BD0010024013
:100CE0000020024000F0FEFF440601000000FFF07B
:100CF000FFFFF6FE08ED00E000127A001C00002065
:100D000040787D0100093D0020000020094880470F
:100D100009480047FEE7FEE7FEE7FEE7FEE7FEE7DD
:100D2000FEE7FEE7FEE7FEE704480549054A064BF5
:100D300070470000990B000831010008D005002021
:100D4000D00B0020D0070020D007002010B50446AB
:100D5000CC48844208D10121042000F0EDFD00219F
:100D6000042000F0E9FD46E0C748844208D1012193
:100D7000082000F0E1FD0021082000F0DDFD3AE050
:100D8000C248844208D10121102000F0D5FD002185
:100D9000102000F0D1FD2EE0BD48844208D1012191
:100DA000202000F0C9FD0021202000F0C5FD22E038
:100DB000B848844208D10121402000F0BDFD002147
:100DC000402000F0B9FD16E0B348844208D101216B
:100DD000802000F0B1FD0021802000F0ADFD0AE090
:100DE000AE48844207D10121801500F0A5FD002105
:100DF000A01500F0A1FD10BD10B50121084600F0BE
:100E00009BFD0021012000F097FD10BD2DE9F04170
:100E1000024600250026002000230024002791F828
:100E200003C00CF00F0591F803C00CF0100CBCF1DE
:100E3000000F03D091F802C04CEA050591F800C0FC
:100E4000BCF1000F31D0146800202BE04FF0010CF2
:100E50000CFA00F3B1F800C00CEA03069E4220D160
:100E600083004FF00F0C0CFA03F7BC4305FA03FCA8
:100E70004CEA040491F803C0BCF1280F06D14FF0EE
:100E8000010C0CFA00FCC2F814C00AE091F803C08F
:100E9000BCF1480F05D14FF0010C0CFA00FCC2F870
:100EA00010C0401C0828D1D31460B1F800C0BCF1B8
:100EB000FF0F34DD546800202EE000F1080C4FF0E5
:100EC000010808FA0CF3B1F800C00CEA03069E42D0
:100ED00021D183004FF00F0C0CFA03F7BC4305FA45
:100EE00003FC4CEA040491F803C0BCF1280F05D1BF
:100EF00000F1080C08FA0CF8C2F8148091F803C04D
:100F0000BCF1480F07D100F1080C4FF0010808FAB6
:100F10000CF8C2F81080401C0828CED35460BDE8FD
:100F2000F0814FF6FF710180022181700421C170B0
:100F300070470246002093680B400BB1012000E08F
:100F4000002070470146886880B270470246002042
:100F5000D3680B400BB1012000E000207047014630
:100F6000C86880B2704701617047416170470AB13B
:100F7000016100E041617047C16070474FF4803209
:100F80000A43826181618261826982697047024697
:100F90000020434B18684FF68073184040EA021057
:100FA00008433F4B186070473E49C8617047F0B531
:100FB0000A46002300240021002500F00046B6F177
:100FC000004F02D1364EF16901E0354E7168C0F331
:100FD000034583B200F44016B6F5401F08D121F056
:100FE00070612F4E766826F070662D4F7E6012E09D
:100FF00000F48016B6F5801F06D1032606FA05F424
:10100000A14341F0706106E0460D360103FA06F691
:10101000B14341F0706122B1460D360103FA06F684
:10102000314300F00046B6F1004F02D11C4EF16191
:1010300001E01B4E7160F0BD30B500228B071C0F24
:101040000F2303FA04F2164B08338C1053F82430A4
:101050009343134C08348D1044F8253023468C10EC
:1010600053F824308C07240F00FA04F423430C4C6B
:1010700008348D1044F8253030BD0A49DC31086051
:101080007047000000080140000C014000100140C2
:101090000014014000180140001C014000200140E4
:1010A000000001400000204210B50446FB48844285
:1010B00009D10121880300F03FFC00214FF480405A
:1010C00000F03AFC32E0F648844209D1012148049C
:1010D00000F03FFC00214FF4003000F03AFC25E026
:1010E000F048844209D10121880400F032FC00213B
:1010F0004FF4802000F02DFC18E0EB48844209D129
:101100000121C80400F025FC00214FF4002000F06C
:1011100020FC0BE0E548844208D10121080500F0DD
:1011200018FC00214FF4801000F013FC10BD2DE9D5
:10113000F04786B005460E460024A24600BFA146F1
:101140000027B08900B100BF2F462C8A4CF6FF70F3
:101150000440F08804432C82AC894EF6F31004401E
:10116000B08831890843718908430443AC81AC8A53
:101170004FF6FF400440B0890443AC8201A800F060
:10118000D3FAC648874202D1DDF810A001E0DDF8AD
:101190000CA0A88900F4004040B10AEBCA0000EBA3
:1011A0000A1031684900B0FBF1F807E00AEBCA0009
:1011B00000EB0A1031688900B0FBF1F86420B8FB3D
:1011C000F0F004012009642101FB1089A88900F4D2
:1011D000004040B1322000EBC900B0FBF1F000F05C
:1011E0000700044308E0322000EB09106421B0FB43
:1011F000F1F000F00F0004432C8106B0BDE8F08749
:101200004FF41651016000218180C18001810C21C1
:10121000418100218181704710B502460020108A6B
:101220004FF2FF0318400B884C8823438C882343DC
:10123000CC8823431843108210BD002101804180D7
:101240008180C180704721B1828942F4005282813D
:1012500004E082894DF6FF731A4082817047F0B531
:101260000346002400260025002040F66A17B942F4
:1012700000D100BF1846C1F3421401F01F06012738
:1012800007FA06F5012C01D10C3004E0022C01D143
:10129000103000E014301AB107682F43076002E0F5
:1012A0000768AF430760F0BD1AB1838A0B4383829E
:1012B00002E0838A8B4383827047028A4FF6F07381
:1012C0001A400282028A0A430282704782894FF2E0
:1012D000FF731A40828182890A438281704721B15B
:1012E000828942F00202828104E082894FF6FD7316
:1012F0001A4082817047028A4FF6DF731A400282D9
:10130000028A0A430282704721B1028A42F4804273
:10131000028204E0028A4BF6FF731A400282704791
:10132000C1F308028280704701468888C0F3080034
:101330007047818941F0010181817047028BD2B2EF
:101340000283028B42EA012202837047028B02F47D
:101350007F420283028B0A430283704721B1828A53
:1013600042F02002828204E0828A4FF6DF731A4044
:101370008282704721B1828A42F01002828204E0A8
:10138000828A4FF6EF731A408282704721B1828AB7
:1013900042F00802828204E0828A4FF6F7731A4014
:1013A0008282704721B1828942F40042828103E047
:1013B0008289C2F30E028281704721B1828A42F48F
:1013C0000062828204E0828A4FF2FF731A408282B6
:1013D0007047828A4FF6FB731A408282828A0A43E0
:1013E0008282704721B1828A42F00202828204E046
:1013F000828A4FF6FD731A408282704702460020AF
:10140000B1F5007F00D100BF13880B400BB1012064
:1014100000E00020704701F40072B2F5007F00D1B7
:1014200000BFCA430280704770B502460024002303
:101430000025002040F66A16B14200D100BFC1F37A
:10144000421501F01F03012606FA03F3012D02D114
:101450009689334006E0022D02D1168A334001E01E
:10146000968A33400C12012606FA04F4168834409A
:1014700013B10CB1012000E0002070BD10B50022B6
:10148000002340F66A14A14200D100BF0A120124D1
:101490009440A3B2DC43048010BD0000003801403A
:1014A0000044004000480040004C00400050004014
:1014B000FB48006840F00100F949086008464068B0
:1014C000F8490840F649486008460068F64908406F
:1014D000F34908600846006820F480200860084648
:1014E000406820F4FE0048600846006820F0A050E4
:1014F00008604FF47F0088600020C8627047E849A8
:10150000096821F48031E64A11601146096821F426
:1015100080211160B0F5803F03D0B0F5802F0ED14F
:1015200006E0DF49096841F48031DD4A116007E0D7
:10153000DB49096841F4A021D94A116000E000BFED
:1015400000BF704710B501460022002300204A1159
:10155000012A02D1D24C236806E0022A02D1D04CE3
:10156000236A01E0CE4C636A01F01F02012494401B
:101570001C400CB1012000E0002010BD38B5002057
:1015800000900024002500BF3120FFF7DBFF054657
:101590000098401C00900098B0F5A06F01D0002D7D
:1015A000F2D03120FFF7CEFF08B1012400E0002483
:1015B000204638BD01460020B94A106820F0F800E6
:1015C00040EAC10010607047B849086070470246A1
:1015D0000020B34B586820F4741042EA010318430A
:1015E000AF4B58607047B14908667047024600200B
:1015F000AB4BD86AAE4B184042EA01031843A84BE4
:10160000D862704701460020A54AD06A20F0F00059
:101610000843D062704701460020A14AD06A20F4F6
:1016200070600843D0627047A049886670470146E1
:1016300000209B4AD06A20F470400843D062704773
:101640009A490867704701460020954A506820F083
:1016500003000843506070479148406800F00C0058
:101660007047014600208E4A506820F0F000084381
:101670005060704701460020894A506820F4E060BD
:1016800008435060704701460020854A506820F4A6
:10169000605040EAC1005060704729B1804A527AD8
:1016A00002437F4B5A7204E07D4A527A82437C4B5C
:1016B0005A7270477D49D831086070470146002052
:1016C000774A506820F44040084350607047794999
:1016D000086070477749091D086070470021704A0B
:1016E000203211706E4A82F82010012802D004289E
:1016F0000AD104E001216A4A2032117005E0052177
:10170000674A2032117000E000BF00BF70476A498D
:10171000086070476249096A0143614A1162704773
:1017200065494439086070472DE9F04100210022E5
:10173000002500230026002400278C46DFF8608166
:10174000D8F8048008F00C0121B1042907D0082939
:1017500059D109E0DFF86481C0F8008058E0DFF873
:101760006081C0F8008053E0DFF83481D8F804804D
:1017700008F47012DFF82881D8F8048008F4803566
:10178000920C0D2A01D0921C00E0062235B9DFF838
:10179000348102FB08F8C0F8008033E0DFF80081F4
:1017A000D8F82C8008F48036DFF8F480D8F82C8044
:1017B00008F00F0808F1010446B9DFF80481B8FB0E
:1017C000F4F808FB02F8C0F800801BE0DFF8D080D6
:1017D000D8F82C80C8F3031808F10107DFF8C0809F
:1017E000D8F82C80C8F3032808F1020CDFF8D08069
:1017F000B8FBF7F808FB0CF8B8FBF4F808FB02F8A4
:10180000C0F8008004E0DFF8B480C0F8008000BFBA
:1018100000BFDFF88C80D8F8048008F0F0010909D7
:10182000DFF8A48018F80130D0F8008028FA03F817
:10183000C0F80480DFF86880D8F8048008F4E0611C
:10184000090ADFF8848018F80130D0F8048028FAFB
:1018500003F8C0F80880DFF84880D8F8048008F45E
:101860006051C90ADFF8608018F80130D0F80480B0
:1018700028FA03F8C0F80C80DFF82480D8F8048038
:1018800008F44041890BDFF8448018F80130D0F8A3
:101890000C80B8FBF3F8C0F81080BDE8F0810000C0
:1018A000001002400000FFF0FFFFF6FE0000424281
:1018B000F0FFFEFFC40542428004424200127A005B
:1018C00040787D0100093D003000002040000020EC
:1018D00029B1354A52690243334B5A6104E0324A16
:1018E00052698243304B5A61704729B12E4A92693E
:1018F00002432D4B9A6104E02B4A926982432A4BA2
:101900009A61704729B1284AD2690243264BDA61AD
:1019100004E0254AD2698243234BDA61704729B13A
:10192000214A926A0243204B9A6204E01E4A926A5C
:1019300082431D4B9A62704729B11B4AD268024309
:10194000194BDA6004E0184AD2688243164BDA6019
:10195000704729B1144A12690243134B1A6104E01B
:10196000114A12698243104B1A6170470F4908608F
:1019700070470F49C86470470B49C87170470A48DF
:10198000406A40F080700849486270470146002074
:10199000054A92680A400AB1012000E00020704721
:1019A0000149887270470000001002404004424222
:1019B0000000424231490143314A1160704770B51D
:1019C000002100230F22C47804B32D4C246804F4B2
:1019D000E064C4F5E064210AC1F10403CA4044781C
:1019E00004FA03F18478144021430901254C067858
:1019F000A155047804F01F050124AC4005786D1151
:101A0000AD0005F1E025C5F8004109E0047804F0D7
:101A10001F050124AC401C4D0678761145F8264080
:101A200070BD1A4A0A400243154B1B1F1A607047CB
:101A300039B1134A121D12680243114B1B1D1A6063
:101A400006E00F4A121D126882430D4B1B1D1A60DF
:101A50007047042808D14FF0E021096941F00401E2
:101A60004FF0E022116107E04FF0E021096921F019
:101A700004014FF0E0221161704700000000FA05F8
:101A80000CED00E000E400E080E100E080FFFF1FDB
:101A900010B50446CE48844208D101218014FFF7D6
:101AA0004BFF0021A014FFF747FF16E0C94884420E
:101AB00008D101210014FFF74CFF00212014FFF78B
:101AC00048FF0AE0C448844207D10121C013FFF750
:101AD00040FF0021E013FFF73CFF10BD10B50022CE
:101AE000028802F441520B884C8823438C8823439C
:101AF000CC8823430C8923434C8923438C8923437B
:101B0000CC8923431A430280838B4FF2FF74234016
:101B100083830B8A038210BD2DE9F04F85B0064602
:101B20000C464FF0000A02274FF000084FF0010B5F
:101B30000025A946B08B4FF240010840B083022037
:101B40003084B6F81CA0A068022801D100BF59E07B
:101B5000A08810B94FF0010B01E04FF0020B9D4837
:101B6000864202D14FF4003501E04FF480259B48B6
:101B7000C06A2840C8B19948C06AC0F30335052D32
:101B800003D90F2D01D2AD1C02E00F2D00D1142579
:101B90009248C06AC0F3031000F101099048B0FBFD
:101BA000F9F068434FEA400904E06846FFF7BCFDDE
:101BB000DDF80090E088B0F5007F0AD14FEA1920E7
:101BC00000EB80004000A168B0FBF1F0401D85B241
:101BD0000BE04FEA4B10B9FBF0F000EB8000400047
:101BE000A168B0FBF1F0401D85B20A20B5FBF0F50D
:101BF00005F00108A5EB0800C0F34F074FF6FF7092
:101C000000EA0828022F01DBFF2F02DD02274FF038
:101C10000008E08840EA080038433084A088A189A1
:101C20000843618808432188084340F4006040EA83
:101C30000A0AA6F81CA005B0BDE8F08F00210180BB
:101C400041808180C180018141818181C1810721E1
:101C5000018270470021018041808180C180022182
:101C6000816000218181704721B1028842F04002E9
:101C7000028004E002884FF6BF731A40028070476A
:101C800021B1828B42F48062828304E0828B4FF622
:101C9000FF331A408283704730B5002400230C11B3
:101CA0000125A540ABB21AB185881D43858002E0AD
:101CB00085889D43858030BD1AB183880B4383801E
:101CC00002E083888B43838070478181704701469F
:101CD000888970474FF6FF62914204D0028842F42F
:101CE0008072028004E002884FF6FF631A4002808F
:101CF000704721B1828842F00402828004E0828829
:101D00004FF6FB731A408280704702884FF2FF73D0
:101D10001A40028002880A4302807047018841F419
:101D200080510180704721B1028842F40052028044
:101D300004E002884DF6FF731A40028070470246A5
:101D40000020012901D0108B00E0908A70470146E5
:101D5000088A7047B1F5804F04D1028842F480426E
:101D6000028004E002884BF6FF731A40028070473D
:101D70000246002013890B400BB1012000E0002037
:101D80007047CA4302817047F0B502460020002424
:101D90000023002501F00F070126BE40B4B20B114D
:101DA00001269E40B3B2968806EA030516892640AE
:101DB00016B10DB1012000E00020F0BD10B50022E9
:101DC00001F00F040123A3409AB2D343038110BD55
:101DD0000030014000380040003C0040001002404C
:101DE00040787D01704700000FB4044910B503AA84
:101DF000029800F0F1F810BC5DF814FB0800002018
:101E00002DE9F0410E460446002020622046E1689C
:101E1000884730B3252805D0D4E901219047206AAE
:101E2000401CF2E7E168204600278847050018D0EB
:101E3000A5F14100192802D820354FF40067324639
:101E4000294620462760FEF7ADF940B1012804D0AD
:101E5000F61D26F007060836D8E7361DD6E72846D1
:101E6000DAE7206ABDE8F0812DE9F041064600245A
:101E700010687529314616A510D0AFF300800028F0
:101E800002DA404213A507E031688A0701D512A59E
:101E900002E0490704D511A5012401E0AFF3008059
:101EA00000210A2206F1240709E0B0FBF2FCB0FB96
:101EB000F2F302FB1C00303078541846491C00280D
:101EC000F3D123462A463046BDE8F04100F02AB857
:101ED000000000002D0000002B000000200000008A
:101EE0000B4910B5A1F17C020A4CC2E93712372127
:101EF00006E000EB104342F82130074B00FB0340A3
:101F00000B1EA1F10101F4DC10BD0120E8E7000087
:101F100008050020E119D666CD0D01007047704715
:101F2000704770472DE9F0470D46994692460446A2
:101F300000F124080168880604D5E06921F0100149
:101F4000216000E00120A84201DD471B00E00027DE
:101F5000A1697A1902EB0900081AA0612078C0066D
:101F600002D42046AFF30080002608E0D4E9012126
:101F70001AF806009047206A401C761C20624E45E5
:101F8000F4DB2078C0060AD52046AFF3008006E0D7
:101F9000D4E9012130209047206A401C2062381E7D
:101FA000A7F10107F4DC07E0D4E9012118F80500E6
:101FB0009047206A401C2062281EA5F10105F3DC31
:101FC0002046AFF300802078000602D50220BDE84D
:101FD000F0870120FBE70000074B70B50D467B44FE
:101FE00000F011F80446284600F020F810B14FF038
:101FF000FF3070BD204670BD51E4FFFF01694A1CEF
:1020000002610878704700B58FB0CDE90131002139
:10201000059105497944CDE9031011466846FFF75B
:10202000EFFE0FB000BD0000E5FFFFFF007B00F0FA
:1020300080007047754600F02BF8AE4605006946F3
:10204000534620F00700854618B020B5FEF76CFE19
:10205000BDE820404FF000064FF000074FF00008A9
:102060004FF0000B21F00701AC46ACE8C009ACE82A
:10207000C009ACE8C009ACE8C0098D46704710B58E
:102080000446AFF300802046BDE81040FEF79EB83E
:102090000048704770050020B820000800000020AC
:1020A000440000006C010008FC20000844000020EF
:1020B0008C0B0000880100080000000000000000F8
:1020C00000000000000013145205211314520520D3
:1020D0000000000000A24A04000000000000000010
:1020E00001020304060708090000000001020304BE
:0C20F000010203040607080902040608A8
:0400000508000D0DD5
:00000001FF
