:020000040800F2
:10000000D00B00207D0C0008690300086B0300087A
:100010006F03000873030008770300080000000066
:100020000000000000000000000000007B0300084A
:100030007D030008000000007F030008250400087D
:10004000970C0008970C0008970C0008970C000804
:10005000970C0008970C0008970C0008970C0008F4
:10006000970C0008970C0008970C0008970C0008E4
:10007000970C0008970C0008970C0008970C0008D4
:10008000970C0008970C0008970C0008970C0008C4
:10009000970C0008970C0008970C0008970C0008B4
:1000A000970C0008970C0008970C0008970C0008A4
:1000B000970C0008970C0008970C0008970C000894
:1000C000970C0008970C0008970C0008970C000884
:1000D000970C0008F9040008970C0008970C00081A
:1000E000970C0008970C0008970C0008970C000864
:1000F000970C0008970C0008970C0008970C000854
:10010000970C0008970C0008970C0008970C000843
:10011000970C0008970C0008970C0008970C000833
:10012000970C0008970C0008970C0008970C000823
:1001300000F002F800F041F80AA090E8000C8244B8
:100140008344AAF10107DA4501D100F036F8AFF295
:10015000090EBAE80F0013F0010F18BFFB1A43F0A5
:1001600001031847FC1C00001C1D0000103A24BFAE
:1001700078C878C1FAD8520724BF30C830C144BF0C
:1001800004680C607047000000230024002500264E
:10019000103A28BF78C1FBD8520728BF30C148BFEA
:1001A0000B607047642901F04385002070471FB53C
:1001B00001F08FFD1FBD10B510BD01F01FFE1146EF
:1001C000FFF7F5FF00F022F801F03DFE03B4FFF762
:1001D000F2FF03BC00F034F90B49D1F800C04A68C3
:1001E0005CF8043B1068184442F8040B8C4528BFA7
:1001F000A1F1DC0C8A4228BFA1F1DC02C1F800C0E9
:100200004A6020F000407047680500204FF44070BD
:1002100001F0D8FA00F0B4F84FF4E13000F01FF923
:1002200035A001F0C5FC00F005FB06E035A001F0AB
:10023000BFFC4FF47A7000F0ECF800F0C6FA00282A
:10024000F4D135A001F0B4FC00F016FB53E0681CBB
:10025000C5B2202D00DD0125012403E033480455FB
:10026000601CC4B2AC42F9DB30480078401C2F4916
:100270000870FFF7B1FF0A2190FBF1F201FB1200B9
:10028000C1B2681E294A1154294B2A4A29462748D7
:1002900000F05AFB064606F0200080B126A001F0CF
:1002A00087FC002406E02148015D28A001F080FCC5
:1002B000601CC4B2AC42F6DB25A001F079FC06F06C
:1002C000400090B123A001F073FC002406E019481F
:1002D000015D1EA001F06CFC601CC4B214480078E3
:1002E0008442F4DB1AA001F063FC19A001F060FC69
:1002F0000A2000F08EF8AAE74F4B2E2E2E0D0A0D85
:100300000A0D0A004E524632344C3031204572728A
:100310006F720D0A000000005458204E52463234CD
:100320004C3031204F4B0D0A000000004C040020DF
:10033000180000202C04002054585F4F4B20202030
:100340002020202054585F4255463A0025642C0056
:100350000D0A000052585F41434B5F4F4B20202055
:1003600052585F4255463A00704700BFFEE700BF53
:10037000FEE700BFFEE700BFFEE77047704770472B
:1003800010B56FF0040001F06CFA294800682949A3
:10039000B0FBF1F0284908704FF0E020006940F010
:1003A00002004FF0E02108612348007800EB400193
:1003B000C1EBC0100121C1EBC0004FF0E02148614A
:1003C0000846006940F00100086110BD70B50346A1
:1003D00000224FF0E0267569174E367803FB06F4CD
:1003E00000BF4FF0E026B16910E04FF0E026B069A1
:1003F00088420BD0884202D20E1A324402E02E1AF2
:100400000E4432440146A24200D300E0EDE700BFB3
:1004100070BD10B504464FF47A7104FB01F0FFF78C
:10042000D5FF10BD05480068401C044908607047AE
:100430001C00002000127A000400002000000020B0
:10044000014600BF704700BF4A4A128802F04002CE
:10045000002AF9D0C2B2474B1B1D1A80704710B555
:1004600086B00446012144F2040001F047F94FF43C
:100470000070ADF8140003208DF8160018208DF8D8
:10048000170005A93C4800F079FC4FF48060ADF8F6
:10049000140004208DF8170005A9374800F06EFC01
:1004A00025208DF8000005208DF8010000208DF832
:1004B000020001208DF80300684601F088F90194DC
:1004C0000020ADF80800ADF80A00ADF80C00ADF85A
:1004D00010000C20ADF80E0001A9264800F0DFFD49
:1004E000012240F22551234800F071FE01212148EC
:1004F00000F061FE06B010BD10B540F225511D4858
:1005000000F04AFF10B31B4800F0C6FEC4B21B48FF
:10051000008800F40040C8B91848008800F4804002
:1005200060B10A2C03D000201449088021E0134850
:10053000008840F40040114908801AE00D2C06D1D3
:100540000E48008840F480400C49088011E00B48B8
:100550000088C0F30D000A490C5408480088401C6C
:100560000649088008460088B0F5487F01DB002076
:10057000088010BD00380140000801400C00002038
:100580000C01002010B504463E4800884FF6C771A4
:1005900008403C4908800846008820430880012123
:1005A000384801F048FA10BD70B50546002405E052
:1005B000601CC4B2C82C01DD002070BD022131488E
:1005C00001F0BDFA0028F3D029462E4801F064FA64
:1005D000002405E0601CC4B2C82C01DD0020ECE75B
:1005E0000121284801F0ABFA0028F3D0254801F09A
:1005F00055FAC0B2E1E700B587B00121042001F04F
:100600007DF80121080301F079F8E020ADF8180029
:1006100018208DF81B0003208DF81A0006A91A482F
:1006200000F0ACFBE021184800F055FC0020ADF8CC
:1006300004004FF48270ADF806000020ADF8080009
:100640000220ADF80A000120ADF80C004002ADF820
:100650000E003820ADF810000020ADF81200072081
:10066000ADF8140001A9074801F040F9012105483F
:1006700001F0E1F9FF20FFF797FF0820FFF782FF65
:1006800007B000BD003001400008014000B587B050
:100690000121082001F032F80520ADF818001020E3
:1006A0008DF81B0003208DF81A0006A9EE4800F013
:1006B00065FB0521EC4800F010FC0121042001F04D
:1006C0001DF84FF40040ADF8180028208DF81B00ED
:1006D00003208DF81A0006A9E44800F04FFB4FF400
:1006E0000041E24800F0F9FBFFF785FF0021E048F8
:1006F00001F0A1F90020ADF804004FF48270ADF8CC
:1007000006000020ADF80800ADF80A00ADF80C00B6
:100710004FF40070ADF80E001820ADF81000002066
:10072000ADF812000720ADF8140001A9D04801F07F
:10073000DDF80121CE4801F07EF91020FFF722FFFD
:100740000020CC4908600120CB49C1F8880107B0DE
:1007500000BD2DE9F04107460D4616460020C5496B
:10076000083108603846FFF71FFF8046002405E087
:10077000FF20FFF719FF2855601CC4B2B442F7DB15
:100780000120BC49083108604046BDE8F0812DE9F0
:10079000F04107460C4615460020B649083108606E
:1007A0003846FFF701FF8046002605E014F8010BEC
:1007B000FFF7FAFE701CC6B2AE42F7DB0120AD496E
:1007C000083108604046BDE8F0811CB5ABA103C903
:1007D000CDE90001052269463020FFF7D8FF052248
:1007E00069461020FFF7B5FF002406E01DF804005D
:1007F000A52800D003E0601CC4B2052CF6DB00BFC6
:10080000052C01D001201CBD0020FCE770B5054679
:100810000C4600209749083108602846FFF7C4FEBF
:1008200006462046FFF7C0FE01209349C1F8880123
:10083000304670BD10B5FFF729FF00208D490860D4
:1008400001212120FFF7E2FF01212220FFF7DEFF37
:100850001A212420FFF7DAFF05212520FFF7D6FF14
:100860000F212620FFF7D2FF01208349C1F8800124
:100870000A20FFF7CEFD10BD10B500207D490860AD
:10088000052280493020FFF782FF05227D492A207A
:10089000FFF77DFF0E212020FFF7B8FFFF21E120A9
:1008A000FFF7B4FFFF21E220FFF7B0FF5020FFF772
:1008B0007BFE7320FFF778FE01213C20FFF7A6FFA7
:1008C00007213D20FFF7A2FF01206B49C1F88001FD
:1008D00010BD10B500206749086005226A492A202A
:1008E000FFF755FF0F212020FFF790FFFF21E120A8
:1008F000FFF78CFFFF21E220FFF788FF5020FFF772
:1009000053FE7320FFF750FE01213C20FFF77EFFCE
:1009100007213D20FFF77AFF01205749C1F88001E8
:1009200010BD70B5044600205249083108602046C9
:10093000FFF73AFEFF20FFF737FE054601204E493C
:10094000C1F88801284670BD2DE9F0470746884662
:1009500091461C4600260020464908600522494968
:100960003020FFF714FF052246492A20FFF70FFF2A
:1009700042463946A020FFF70AFF01203E49C1F850
:1009800080010A20FFF722FD00BF404800680028D0
:10099000FBD10720FFF7C5FF054629462720FFF7B3
:1009A00035FF05F0200008B146F0200605F01000E4
:1009B00020B137A001F0FCF846F0100605F0400029
:1009C000A0B16020FFF7ADFF20702078212805DA64
:1009D000227849466120FFF7BCFE05E00020207028
:1009E000FF21E220FFF712FF46F040063046BDE847
:1009F000F08770B504460D4600201E4908602A465F
:100A00002146A820FFF7C3FE01201B49C1F8800141
:100A100070BD2DE9F04106460F4614460720FFF74A
:100A200080FF054629462720FFF7F0FE05F040002D
:100A3000C0B1C5F3420030706020FFF772FF207034
:100A40002078212805DA227839466120FFF781FED7
:100A500005E000202070FF21E220FFF7D7FE4020B4
:100A6000BDE8F0810020FBE7000C014000080140D8
:100A7000003001408081214200802142A5A5A5A52A
:100A8000A50000000E000020130000203C012142C0
:100A90004D41585F54580D0A000000000CB500206D
:100AA000019000906C48006840F480306A4908600A
:100AB00000BF6948006800F4003000900198401CB5
:100AC0000190009818B90198B0F5A06FF1D1624873
:100AD000006800F4003010B10120009001E0002017
:100AE00000900098012843D15C48006840F0100055
:100AF0005A4908600846006820F00300086008466C
:100B0000006840F00200086053484068524948605D
:100B10000846406848600846406840F48060486085
:100B20000846406820F47C1048600846406840F45D
:100B3000E81048600846006840F08070086000BF18
:100B40004548006800F000700028F9D0424840682D
:100B500020F00300404948600846406840F0020029
:100B6000486000BF3C48406800F00C000828F9D1FC
:100B70000CBD10B5FFF792FF10BD10B536480068E8
:100B800040F0010034490860084640683449084094
:100B90003149486008460068324908402E490860DB
:100BA0000846006820F4802008600846406820F469
:100BB000FE0048604FF41F008860FFF7DAFF4FF037
:100BC00000602949086010BD10B5002100200022F6
:100BD000214B5B6803F00C0121B1042906D00829E0
:100BE00028D107E0214B224C236027E01F4B204CEB
:100BF000236023E0184B5B6803F47010164B5B68AE
:100C000003F48032022303EB904022B9194B434393
:100C1000174C23600DE0104B5B6803F4003323B1E5
:100C2000144B4343124C236003E0104B4343104CDE
:100C3000236003E00D4B0E4C236000BF00BF064B4A
:100C40005B68C3F303130C4CE15C094B1B68CB409E
:100C5000074C236010BD000000100240002002403D
:100C60000000FFF8FFFFF6FE08ED00E000127A003A
:100C70001C00002000093D0020000020094880479A
:100C800009480047FEE7FEE7FEE7FEE7FEE7FEE76E
:100C9000FEE7FEE7FEE7FEE704480549054A064B86
:100CA000704700007B0B000831010008D0050020D0
:100CB000D00B0020D0070020D007002010B504463C
:100CC000CC48844208D10121042000F031FD0021EC
:100CD000042000F02DFD46E0C748844208D10121E0
:100CE000082000F025FD0021082000F021FD3AE059
:100CF000C248844208D10121102000F019FD0021D2
:100D0000102000F015FD2EE0BD48844208D10121DD
:100D1000202000F00DFD0021202000F009FD22E040
:100D2000B848844208D10121402000F001FD002193
:100D3000402000F0FDFC16E0B348844208D10121B8
:100D4000802000F0F5FC0021802000F0F1FC0AE09A
:100D5000AE48844207D10121801500F0E9FC002152
:100D6000A01500F0E5FC10BD10B50121084600F00B
:100D7000DFFC0021012000F0DBFC10BD2DE9F0417B
:100D8000024600250026002000230024002791F8B9
:100D900003C00CF00F0591F803C00CF0100CBCF16F
:100DA000000F03D091F802C04CEA050591F800C08D
:100DB000BCF1000F31D0146800202BE04FF0010C83
:100DC0000CFA00F3B1F800C00CEA03069E4220D1F1
:100DD00083004FF00F0C0CFA03F7BC4305FA03FC39
:100DE0004CEA040491F803C0BCF1280F06D14FF07F
:100DF000010C0CFA00FCC2F814C00AE091F803C020
:100E0000BCF1480F05D14FF0010C0CFA00FCC2F800
:100E100010C0401C0828D1D31460B1F800C0BCF148
:100E2000FF0F34DD546800202EE000F1080C4FF075
:100E3000010808FA0CF3B1F800C00CEA03069E4260
:100E400021D183004FF00F0C0CFA03F7BC4305FAD5
:100E500003FC4CEA040491F803C0BCF1280F05D14F
:100E600000F1080C08FA0CF8C2F8148091F803C0DD
:100E7000BCF1480F07D100F1080C4FF0010808FA47
:100E80000CF8C2F81080401C0828CED35460BDE88E
:100E9000F0814FF6FF710180022181700421C17041
:100EA00070470246002093680B400BB1012000E020
:100EB000002070470146886880B2704702460020D3
:100EC000D3680B400BB1012000E0002070470146C1
:100ED000C86880B2704701617047416170470AB1CC
:100EE000016100E041617047C16070474FF480329A
:100EF0000A43826181618261826982697047024628
:100F00000020434B18684FF68073184040EA0210E7
:100F100008433F4B186070473E49C8617047F0B5C1
:100F20000A46002300240021002500F00046B6F107
:100F3000004F02D1364EF16901E0354E7168C0F3C1
:100F4000034583B200F44016B6F5401F08D121F0E6
:100F500070612F4E766826F070662D4F7E6012E02D
:100F600000F48016B6F5801F06D1032606FA05F4B4
:100F7000A14341F0706106E0460D360103FA06F622
:100F8000B14341F0706122B1460D360103FA06F615
:100F9000314300F00046B6F1004F02D11C4EF16122
:100FA00001E01B4E7160F0BD30B500228B071C0FB5
:100FB0000F2303FA04F2164B08338C1053F8243035
:100FC0009343134C08348D1044F8253023468C107D
:100FD00053F824308C07240F00FA04F423430C4CFC
:100FE00008348D1044F8253030BD0A49DC310860E2
:100FF0007047000000080140000C01400010014053
:101000000014014000180140001C01400020014074
:10101000000001400000204210B50446FB48844215
:1010200009D10121880300F083FB00214FF48040A7
:1010300000F07EFB32E0F648844209D101214804E9
:1010400000F083FB00214FF4003000F07EFB25E030
:10105000F048844209D10121880400F076FB002188
:101060004FF4802000F071FB18E0EB48844209D176
:101070000121C80400F069FB00214FF4002000F0BA
:1010800064FB0BE0E548844208D10121080500F02B
:101090005CFB00214FF4801000F057FB10BD2DE9E0
:1010A000F04786B005460E460024A24600BFA14682
:1010B0000027B08900B100BF2F462C8A4CF6FF7084
:1010C0000440F08804432C82AC894EF6F3100440AF
:1010D000B08831890843718908430443AC81AC8AE4
:1010E0004FF6FF400440B0890443AC8201A800F0F1
:1010F00098FAC648874202D1DDF810A001E0DDF879
:101100000CA0A88900F4004040B10AEBCA0000EB33
:101110000A1031684900B0FBF1F807E00AEBCA0099
:1011200000EB0A1031688900B0FBF1F86420B8FBCD
:10113000F0F004012009642101FB1089A88900F462
:10114000004040B1322000EBC900B0FBF1F000F0EC
:101150000700044308E0322000EB09106421B0FBD3
:10116000F1F000F00F0004432C8106B0BDE8F087D9
:101170004FF41651016000218180C18001810C2152
:10118000418100218181704710B502460020108AFC
:101190004FF2FF0318400B884C8823438C8823436D
:1011A000CC8823431843108210BD00210180418068
:1011B0008180C180704721B1828942F400528281CE
:1011C00004E082894DF6FF731A4082817047F0B5C2
:1011D0000346002400260025002040F66A17B94285
:1011E00000D100BF1846C1F3421401F01F060127C9
:1011F00007FA06F5012C01D10C3004E0022C01D1D4
:10120000103000E014301AB107682F43076002E085
:101210000768AF430760F0BD1AB1838A0B4383822E
:1012200002E0838A8B4383827047028A4FF6F07311
:101230001A400282028A0A430282704782894FF270
:10124000FF731A40828182890A438281704721B1EB
:10125000828942F00202828104E082894FF6FD73A6
:101260001A4082817047028A4FF6DF731A40028269
:10127000028A0A430282704721B1028A42F4804204
:10128000028204E0028A4BF6FF731A400282704722
:10129000C1F308028280704701468888C0F30800C5
:1012A0007047818941F0010181817047028BD2B280
:1012B0000283028B42EA012202837047028B02F40E
:1012C0007F420283028B0A430283704721B1828AE4
:1012D00042F02002828204E0828A4FF6DF731A40D5
:1012E0008282704721B1828A42F01002828204E039
:1012F000828A4FF6EF731A408282704721B1828A48
:1013000042F00802828204E0828A4FF6F7731A40A4
:101310008282704721B1828942F40042828103E0D7
:101320008289C2F30E028281704721B1828A42F41F
:101330000062828204E0828A4FF2FF731A40828246
:101340007047828A4FF6FB731A408282828A0A4370
:101350008282704721B1828A42F00202828204E0D6
:10136000828A4FF6FD731A4082827047024600203F
:10137000B1F5007F00D100BF13880B400BB10120F5
:1013800000E00020704701F40072B2F5007F00D148
:1013900000BFCA430280704770B502460024002394
:1013A0000025002040F66A16B14200D100BFC1F30B
:1013B000421501F01F03012606FA03F3012D02D1A5
:1013C0009689334006E0022D02D1168A334001E0AF
:1013D000968A33400C12012606FA04F4168834402B
:1013E00013B10CB1012000E0002070BD10B5002247
:1013F000002340F66A14A14200D100BF0A12012462
:101400009440A3B2DC43048010BD000000380140CA
:101410000044004000480040004C004000500040A4
:10142000DF48006840F00100DD4908600846406878
:10143000DC490840DA49486008460068DA49084053
:10144000D74908600846006820F4802008600846F4
:10145000406820F4FE0048604FF41F008860704729
:10146000CF49096821F48031CD4A116011460968DD
:1014700021F480211160B0F5803F03D0B0F5802FBA
:101480000ED106E0C649096841F48031C44A1160B2
:1014900007E0C349096841F4A021C14A116000E096
:1014A00000BF00BF704710B5014600220023002096
:1014B0004A11012A02D1BA4C236806E0022A02D15D
:1014C000B74C236A01E0B64C636A01F01F020124A5
:1014D00094401C400CB1012000E0002010BD38B544
:1014E000002000900024002500BF3120FFF7DBFF23
:1014F00005460098401C00900098B0F5A06F01D000
:10150000002DF2D03120FFF7CEFF08B1012400E01A
:101510000024204638BD01460020A14A106820F072
:10152000F80040EAC10010607047A04908607047A9
:10153000024600209A4B586820F47C1042EA0103CE
:101540001843974B586070479849086670470146A2
:101550000020934A506820F0030008435060704711
:101560008F48406800F00C007047014600208C4A0C
:10157000506820F0F000084350607047014600209A
:10158000874A506820F4E060084350607047014685
:101590000020834A506820F4605040EAC100506047
:1015A000704729B17E4A527A02437D4B5A7204E059
:1015B0007B4A527A82437A4B5A7270477B49D831C0
:1015C0000860704701460020754A506820F440408A
:1015D0000843506070470021714A20321170704AF0
:1015E00082F82010012802D004280AD104E0012149
:1015F0006B4A2032117005E00521694A20321170D2
:1016000000E000BF00BF7047694908607047644947
:10161000096A0143624A11627047654944390860AA
:10162000704730B500210022002400235C4D6D6816
:1016300005F00C0121B1042905D0082923D105E0CA
:101640005C4D056022E05B4D05601FE0544D6D6808
:1016500005F47012524D6D6805F48034022505EBD7
:1016600092421CB9544D554305600BE04C4D6D68DA
:1016700005F400351DB1504D5543056002E04D4D58
:101680005543056002E04B4D056000BF00BF444D6F
:101690006D6805F0F0010909484D6B5C0568DD4097
:1016A00045603F4D6D6805F4E061090A434D6B5C90
:1016B0004568DD4085603A4D6D6805F46051C90AA2
:1016C0003E4D6B5C4568DD40C560354D6D6805F489
:1016D0004041890B3A4D6B5CC568B5FBF3F505617C
:1016E00030BD29B12E4A526902432D4B5A6104E0A4
:1016F0002B4A526982432A4B5A61704729B1284AC2
:1017000092690243264B9A6104E0254A926982431A
:10171000234B9A61704729B1214AD2690243204B79
:10172000DA6104E01E4AD26982431D4BDA617047D8
:1017300029B11B4AD2680243194BDA6004E0184A07
:10174000D2688243164BDA60704729B1144A126995
:101750000243134B1A6104E0114A12698243104B91
:101760001A61704712494039086070470F49C864D0
:1017700070470B49C87170470948406A40F0807053
:1017800007494862704701460020054A92680A40AE
:101790000AB1012000E000207047014988727047BB
:1017A000001002400000FFF8FFFFF6FE000042427A
:1017B0008004424200127A0000093D0030000020FF
:1017C0004000002031490143314A1160704770B533
:1017D000002100230F22C47804B32D4C246804F4A4
:1017E000E064C4F5E064210AC1F10403CA4044780E
:1017F00004FA03F18478144021430901254C06784A
:10180000A155047804F01F050124AC4005786D1142
:10181000AD0005F1E025C5F8004109E0047804F0C9
:101820001F050124AC401C4D0678761145F8264072
:1018300070BD1A4A0A400243154B1B1F1A607047BD
:1018400039B1134A121D12680243114B1B1D1A6055
:1018500006E00F4A121D126882430D4B1B1D1A60D1
:101860007047042808D14FF0E021096941F00401D4
:101870004FF0E022116107E04FF0E021096921F00B
:1018800004014FF0E0221161704700000000FA05EA
:101890000CED00E000E400E080E100E080FFFF1FCD
:1018A00010B50446BE48844208D101218014FFF7D8
:1018B0003FFF0021A014FFF73BFF16E0B948844228
:1018C00008D101210014FFF740FF00212014FFF789
:1018D0003CFF0AE0B448844207D10121C013FFF75E
:1018E00034FF0021E013FFF730FF10BD10B50022D8
:1018F000028802F441520B884C8823438C8823438E
:10190000CC8823430C8923434C8923438C8923436C
:10191000CC8923431A430280838B4FF2FF74234008
:1019200083830B8A038210BD2DE9F04F85B00546F5
:101930000C464FF0000902274FF000084FF0010B52
:101940000026B246A88B4FF240010840A88302202F
:101950002884B5F81C90A068022801D100BF38E0A7
:10196000A08810B94FF0010B01E04FF0020B8D4839
:10197000854200D100E000BF6846FFF752FEDDF867
:1019800000A0E088B0F5007F0AD14FEA1A2000EBF2
:1019900080004000A168B0FBF1F0401D86B20BE072
:1019A0004FEA4B10BAFBF0F000EB80004000A1685A
:1019B000B0FBF1F0401D86B20A20B6FBF0F606F04F
:1019C0000108A6EB0800C0F34F074FF6FF7000EACE
:1019D0000828022F01DBFF2F02DD02274FF000084D
:1019E000E08840EA080038432884A088A189084399
:1019F000618808432188084340F4006040EA0909EF
:101A0000A5F81C9005B0BDE8F08F00210180418051
:101A10008180C180018141818181C1810721018251
:101A200070470021018041808180C1800221816056
:101A300000218181704721B1028842F0400202807A
:101A400004E002884FF6BF731A400280704721B14C
:101A5000828B42F48062828304E0828B4FF6FF33F4
:101A60001A408283704730B5002400230C110125F1
:101A7000A540ABB21AB185881D43858002E08588F8
:101A80009D43858030BD1AB183880B43838002E07B
:101A900083888B43838070478181704701468889A2
:101AA00070474FF6FF62914204D0028842F4807280
:101AB000028004E002884FF6FF631A4002807047FC
:101AC00021B1828842F00402828004E082884FF6CD
:101AD000FB731A408280704702884FF2FF731A40EE
:101AE000028002880A4302807047018841F48051D5
:101AF0000180704721B1028842F40052028004E064
:101B000002884DF6FF731A4002807047024600209B
:101B1000012901D0108B00E0908A70470146088AA5
:101B20007047B1F5804F04D1028842F480420280B0
:101B300004E002884BF6FF731A40028070470246A9
:101B4000002013890B400BB1012000E000207047FA
:101B5000CA4302817047F0B50246002000240023EA
:101B6000002501F00F070126BE40B4B20B1101267B
:101B70009E40B3B2968806EA03051689264016B140
:101B80000DB1012000E00020F0BD10B5002201F0F1
:101B90000F040123A3409AB2D343038110BD000078
:101BA0000030014000380040003C00407047000019
:101BB0000FB4044910B503AA029800F0F1F810BC64
:101BC0005DF814FB080000202DE9F0410E460446A4
:101BD000002020622046E168884730B3252805D0E0
:101BE000D4E901219047206A401CF2E7E1682046D1
:101BF00000278847050018D0A5F14100192802D810
:101C000020354FF400673246294620462760FEF70C
:101C1000C9FA40B1012804D0F61D26F0070608369F
:101C2000D8E7361DD6E72846DAE7206ABDE8F08116
:101C30002DE9F0410646002410687529314616A5A5
:101C400010D0AFF30080002802DA404213A507E06D
:101C500031688A0701D512A502E0490704D511A50C
:101C6000012401E0AFF3008000210A2206F12407DD
:101C700009E0B0FBF2FCB0FBF2F302FB1C003030D9
:101C800078541846491C0028F3D123462A4630468A
:101C9000BDE8F04100F02AB8000000002D0000006F
:101CA0002B000000200000000B4910B5A1F17C02C0
:101CB0000A4CC2E93712372106E000EB104342F824
:101CC0002130074B00FB03400B1EA1F10101F4DCA6
:101CD00010BD0120E8E7000008050020E119D666E4
:101CE000CD0D010070477047704770472DE9F047F0
:101CF0000D4699469246044600F12408016888067C
:101D000004D5E06921F01001216000E00120A84223
:101D100001DD471B00E00027A1697A1902EB0900E9
:101D2000081AA0612078C00602D42046AFF30080D4
:101D3000002608E0D4E901211AF806009047206A3D
:101D4000401C761C20624E45F4DB2078C0060AD584
:101D50002046AFF3008006E0D4E90121302090470F
:101D6000206A401C2062381EA7F10107F4DC07E05E
:101D7000D4E9012118F805009047206A401C206230
:101D8000281EA5F10105F3DC2046AFF30080207882
:101D9000000602D50220BDE8F0870120FBE7000025
:101DA000074B70B50D467B4400F011F804462846F9
:101DB00000F020F810B14FF0FF3070BD204670BD2C
:101DC0009DE6FFFF01694A1C02610878704700B573
:101DD0008FB0CDE901310021059105497944CDE964
:101DE000031011466846FFF7EFFE0FB000BD00007C
:101DF000E5FFFFFF007B00F080007047754600F0B4
:101E00002BF8AE4605006946534620F0070085468C
:101E100018B020B5FEF740FFBDE820404FF00006A7
:101E20004FF000074FF000084FF0000B21F00701C2
:101E3000AC46ACE8C009ACE8C009ACE8C009ACE805
:101E4000C0098D46704710B50446AFF300802046A8
:101E5000BDE81040FEF7BAB9004870477005002091
:101E6000801E000800000020440000006C010008F3
:101E7000C41E0008440000208C0B000088010008EC
:101E8000000000000000000000000000000013142B
:101E900052052013145205210000000000A24A043C
:101EA000000000000000000001020304060708090A
:101EB00000000000010203040102030406070809F0
:041EC000020406080A
:0400000508000C7D66
:00000001FF
